:020000020000FC
:0200000008C036
:100010002DC00FEF0AB904B900E007B900E400935E
:100020007C0007E800937A0002E0009368000EE08D
:1000300000936C00789441E000E0302E402E502E6A
:1000400000932501009324010093230100931001E4
:1000500000931101009312010395602E09E00093B3
:100060002001009321010093220186C006B103FF05
:1000700046C001FF04C002FFBBC000271895DFE0A7
:10008000882400911001302E00911101402E009122
:100090001201502E0AE0560C50161CF08394501A90
:1000A000FBCF480C882440161CF08394401AFBCFE9
:1000B000380C30160CF03324009120013016A4F0D7
:1000C00049F40091210140167CF021F400912201B5
:1000D000501654F000912001302E00912101402E45
:1000E00000912201502E0027032D00931001042DB2
:1000F00000931101052D0093120100271895882403
:1001000000911001302E00911101402E009112013A
:10011000502E00E0301629F4401619F4501609F458
:1001200014C00AE056141CF48394500EFBCF5618EA
:10013000182D882441161CF48394400EFBCF411ADD
:10014000112738140CF4382C38180091230130167C
:1001500009F054F600912401401609F02CF60091A4
:10016000250150160CF6502E00912401402E0091CE
:100170002301302E0027B8CF00911001302E0091BE
:100180001101402E00911201502E12D01BD025D00B
:10019000F3CF2AE02A9509F0FDCF0895332773FCA9
:1001A000306172FC306271FC306470FC306808951C
:1001B000732CF4DF337F03B1016005B93BB9E9DF8C
:1001C000E8DF0895742CEADF38603B7F03B10E7FCF
:1001D00005B93BB9DEDFDDDF0895752CDFDF377F42
:1001E000346003B10E7F05B93BB9D3DFD2DF089588
:1001F000423049F0443011F1483021F04130E1F013
:1002000041E01AC034C003B1077F02600B7F05B91B
:100210005CD045D0CDDFD6DFE0DF16B112FD01C0E6
:10022000F2CF1127032D00932301042D0093240105
:10023000052D0093250100C0440F189503B1077FD9
:100240000D7F046005B941D02AD0B2DFBBDFC5DF26
:1002500016B112FD01C0F2CF1127032D009320012A
:10026000042D00932101052D00932201E5CF03B158
:10027000077F0D7F046005B928D011D099DFA2DF78
:10028000ACDF16B112FD01C0F2CF042D003009F031
:100290000AE0050D003108F00FE0602ECDCF3324C9
:1002A00044245524B03021F0D297D2973394FACF1A
:1002B0006A2F643618F064563394FBCF6A3018F016
:1002C0006A504394FBCF562E089520917A00206403
:1002D00020937A0020917A0024FFFCCFA09178002F
:1002E000B091790020917A00206120937A000895DE
:0C02F000CFEF4FDFCA9509F0FCCF089556
:00000001FF
